S00E00004D61737465722E73726563AA
S11300000C942A000C9447000C9447000C9447006D
S11300100C9447000C9447000C9447000C94470040
S11300200C9447000C9447000C9447000C94470030
S11300300C9447000C9447000C9447000C94470020
S11300400C9447000C9447000C9447000C94470010
S11300500C94470011241FBECFE5D8E0DEBFCDBF0E
S113006010E0A0E6B0E0ECEBF4E002C005900D92E5
S1130070AE38B107D9F720E0AEE8B0E001C01D9278
S1130080AE38B207E1F70E940D020C945C020C94A6
S11300900000442319F04130C9F10895813091F0F2
S11300A028F08230D9F0833029F108952AB381E011
S11300B090E002C0880F991F6A95E2F78095822329
S11300C08ABB089527B381E090E002C0880F991F8E
S11300D06A95E2F78095822387BB089524B381E073
S11300E090E002C0880F991F6A95E2F780958223F9
S11300F084BB089521B381E090E002C0880F991F6A
S11301006A95E2F78095822381BB0895813089F056
S113011028F08230C9F0833011F108952AB381E0C8
S113012090E002C0880F991F6A95E2F7822B8ABB80
S1130130089527B381E090E002C0880F991F6A9563
S1130140E2F7822B87BB089524B381E090E002C0DC
S1130150880F991F6A95E2F7822B84BB089521B317
S113016081E090E002C0880F991F6A95E2F7822B24
S113017081BB0895442319F04130C9F108958130B9
S113018091F028F08230D9F0833029F108952BB30F
S113019081E090E002C0880F991F6A95E2F780958C
S11301A082238BBB089528B381E090E002C0880FBE
S11301B0991F6A95E2F78095822388BB089525B339
S11301C081E090E002C0880F991F6A95E2F780955C
S11301D0822385BB089522B381E090E002C0880F9A
S11301E0991F6A95E2F78095822382BB0895813036
S11301F089F028F08230C9F0833011F108952BB3CF
S113020081E090E002C0880F991F6A95E2F7822B83
S11302108BBB089528B381E090E002C0880F991F3A
S11302206A95E2F7822B88BB089525B381E090E0BC
S113023002C0880F991F6A95E2F7822B85BB089547
S113024022B381E090E002C0880F991F6A95E2F71B
S1130250822B82BB0895CF93C82F40E061E081E0F8
S11302600E94BA0040E062E081E00E94BA0040E0EF
S113027063E081E00E94BA008BB39C2F907F8F7063
S1130280892B8BBB41E063E081E00E94BA008FE9D7
S11302909FE00197F1F700C0000040E063E081E0D7
S11302A00E94BA002BB330E1C39FC0011124922FE6
S11302B09F70892B8BBB41E063E081E00E94BA0010
S11302C08FE99FE00197F1F700C0000040E063E090
S11302D081E00E94BA008FE19EE40197F1F700C02B
S11302E00000CF91089541E061E081E00E9449005F
S11302F041E062E081E00E94490041E063E081E086
S11303000E94490041E064E080E00E94490041E02D
S113031065E080E00E94490041E066E080E00E94E0
S1130320490041E067E080E00E94490083E30E94C5
S11303302B0182E30E942B0188E20E942B0182E0C0
S11303400E942B018CE00E942B0181E00E942B0172
S113035086E00E942B010895CF93C82F41E061E00D
S113036081E00E94BA0040E062E081E00E94BA00AD
S113037040E063E081E00E94BA008BB39C2F907F41
S11303808F70892B8BBB41E063E081E00E94BA004F
S11303908FE99FE00197F1F700C0000040E063E0BF
S11303A081E00E94BA002BB330E1C39FC001112445
S11303B0922F9F70892B8BBB41E063E081E00E9408
S11303C0BA008FE99FE00197F1F700C0000040E018
S11303D063E081E00E94BA008FE19EE40197F1F7A7
S11303E000C00000CF91089581E00E942B01089580
S11303F0CF93DF93EC018881882361F021960E94DA
S1130400AC018FE39CE90197F1F700C000008991EA
S11304108111F5CFDF91CF9108950E9450020E947F
S113042045020E9473010E945802813351F40E94D4
S1130430F40185E00E944C0280E690E00E94F801FD
S1130440F2CF823351F486E00E944C020E94F40100
S11304508BE690E00E94F801E6CF833351F487E005
S11304600E944C020E94F40187E790E00E94F80188
S1130470DACF8433C1F688E00E944C020E94F40172
S113048082E890E00E94F801CECFBD9ABE98BF9A50
S1130490BC9A83E58DB908958FB9779BFECF0895F3
S11304A088E18AB986E880BD87E689B910BC0895D9
S10F04B05F9BFECF8CB10895F894FFCF41
S11304BC4C45442031203A204F4E004C45442031C9
S11304CC203A204F4646004C45442032203A204FD7
S11104DC4E004C45442032203A204F46460044
S9030000FC
